:020000040800F2
:10000000B008002449030008532B0008ED2800081D
:10001000512B0008030900082536000800000000E5
:10002000000000000000000000000000972E000803
:100030000509000800000000552B0008992E000853
:1000400063030008630300086303000863030008F8
:10005000630300086303000807090008630300083E
:1000600063030008630300086303000863030008D8
:1000700063030008630300086303000863030008C8
:1000800063030008630300086303000863030008B8
:1000900063030008630300086303000863030008A8
:1000A0006303000863030008630300086303000898
:1000B0006303000863030008630300086303000888
:1000C0006303000863030008630300086303000878
:1000D0006303000863030008630300086303000868
:1000E00063030008630300080000000063030008C6
:1000F0006303000863030008630300086303000848
:100100006303000863030008630300086303000837
:100110006303000863030008630300086303000827
:100120006303000863030008630300086303000817
:100130006303000863030008630300086303000807
:1001400000000000000000000000000000000000AF
:1001500063030008630300086303000863030008E7
:1001600063030008630300086303000863030008D7
:1001700063030008630300086303000863030008C7
:1001800063030008630300086303000863030008B7
:1001900063030008630300086303000863030008A7
:1001A0006303000863030008630300086303000897
:1001B0006303000863030008630300086303000887
:1001C0006303000863030008630300086303000877
:1001D0006303000863030008630300086303000867
:1001E0006303000863030008630300086303000857
:1001F0006303000863030008630300086303000847
:100200006303000863030008630300086303000836
:100210006303000863030008630300086303000826
:100220006303000863030008630300080000000084
:100230006303000863030008000000006303000874
:1002400063030008630300086303000863030008F6
:1002500063030008630300086303000863030008E6
:1002600063030008630300086303000863030008D6
:100270006303000863030008630300080000000034
:100280006303000863030008630300080000000024
:10029000000000006303000800F002F800F044F8DA
:1002A0000AA090E8000C82448344AAF10107DA45D1
:1002B00001D100F039F8AFF2090EBAE80F0013F0DF
:1002C000010F18BFFB1A43F00103184788350000DF
:1002D000A8350000103A24BF78C878C1FAD8520770
:1002E00024BF30C830C144BF04680C6070470000B0
:1002F0000023002400250026103A28BF78C1FBD82F
:10030000520728BF30C148BF0B607047642900F016
:10031000F380782900F02C81002070471FB503F08E
:100320006BFA1FBD10B510BD00F000FA1146FFF7C3
:10033000F5FF03F0C7F900F01EFA03B4FFF7F2FF70
:1003400003BC03F081F900000948804709480047D1
:10035000FEE7FEE7FEE7FEE7FEE7FEE7FEE7FEE775
:10036000FEE7FEE704480549054A064B70470000D2
:10037000612F000899020008B0020024B008002490
:10038000B0040024B004002453EA020C00F0698099
:100390002DE9F04B4FF00006002B1FBFB3FA83F599
:1003A00003FA05F424FA05F65E4012BF1643B2FACA
:1003B00082F502FA05F4C5F120051EBF22FA05FCFC
:1003C00044EA0C04203556EA044C4FEA144418BFA2
:1003D000641C4FF000084FF00009904271EB030CD1
:1003E00039D3002919BFB1FA81F701FA07F6B0FA3B
:1003F00080F700FA07F6C7F120071EBF20FA07FCB6
:1004000046EA0C062037B6FBF4FCA7EB0507103FC5
:1004100007F01F0BCBF120060CFA0BFB2CFA06F6AB
:1004200044BFB3460026202FA4BF5E464FF0000B0A
:100430005BEA060C08BF4FF0010B19EB0B09ABFB95
:10044000027C48EB0608C01B06FB02CC0BFB03CC6E
:1004500071EB0C01C1E70B46024641464846BDE838
:10046000F08B13B54FF000004FF00001AFF30080A8
:10047000BDE81C40704700000FB4044910B503AA42
:10048000029800F025F910BC5DF814FB1800002458
:100490002DE9F0410E460446002020622046E16826
:1004A000884730B3252805D0D4E901219047206A38
:1004B000401CF2E7E168204600278847050018D075
:1004C000A5F14100192802D820354FF400673246C3
:1004D000294620462760FFF719FF40B1012804D0C4
:1004E000F61D26F007060836D8E7361DD6E728465B
:1004F000DAE7206ABDE8F0812DE9F04106460024E4
:1005000010687529314616A510D0AFF30080002879
:1005100002DA404213A507E031688A0701D512A527
:1005200002E0490704D511A5012401E0AFF30080E2
:1005300000210A2206F1240709E0B0FBF2FCB0FB1F
:10054000F2F302FB1C00303078541846491C002896
:10055000F3D123462A463046BDE8F04100F05EB8AC
:10056000000000002D0000002B0000002000000013
:1005700070B504460D4621461068AFF3008021880F
:10058000090502D50F4A7A4402E00E4A7A440E3237
:10059000002104F1240305E000F00F060009965D38
:1005A0005E54491C0028F7D120780023000704D5A9
:1005B000702D02D009B1022311322046BDE87040EF
:1005C00000F02CB8A03200004FF0000200B5134636
:1005D00094469646203922BFA0E80C50A0E80C5063
:1005E000B1F12001BFF4F7AF090728BFA0E80C5014
:1005F00048BF0CC05DF804EB890028BF40F8042B0D
:1006000008BF704748BF20F8022B11F0804F18BF79
:1006100000F8012B70477047704770472DE9F0478D
:100620000D4699469246044600F124080168880662
:1006300004D5E06921F01001216000E00120A8420A
:1006400001DD471B00E00027A1697A1902EB0900D0
:10065000081AA0612078C00602D42046AFF30080BB
:10066000002608E0D4E901211AF806009047206A24
:10067000401C761C20624E45F4DB2078C0060AD56B
:100680002046AFF3008006E0D4E9012130209047F6
:10069000206A401C2062381EA7F10107F4DC07E045
:1006A000D4E9012118F805009047206A401C206217
:1006B000281EA5F10105F3DC2046AFF30080207869
:1006C000000602D50220BDE8F0870120FBE700000C
:1006D000074B70B50D467B4400F011F804462846E0
:1006E00000F020F810B14FF0FF3070BD204670BD13
:1006F000D72F000001694A1C02610878704700B5D5
:100700008FB0CDE901310021059105497944CDE94A
:10071000031011466846FFF7BBFE0FB000BD000096
:10072000E5FFFFFF007B00F080007047754600F09A
:100730002BF8AE4605006946534620F00700854673
:1007400018B020B5FFF70EFEBDE820404FF00006C0
:100750004FF000074FF000084FF0000B21F00701A9
:10076000AC46ACE8C009ACE8C009ACE8C009ACE8EC
:10077000C0098D46704710B50446AFF3008020468F
:10078000BDE81040FFF7D9BD004870474C02002477
:100790001CB504460020009011218DF800108DF842
:1007A000010001908DF80200E1688847A3680322E8
:1007B00001A968469847616864208847E16801207C
:1007C00088471CBD1CB504460020009010218DF800
:1007D00000108DF8010001908DF80200E168884753
:1007E000A368032201A96846984761686420884786
:1007F000E168012088471CBD10B58EB004461C215D
:1008000007A8FFF7E1FE1C216846FFF7DDFE002187
:10081000089112208DF81C008DF81D1000208DF815
:100820001E108DF81F1009910A910B910C910D91DA
:10083000E1688847A3681C2207A869469847E168D1
:10084000012088479DF800209DF801009DF80610C2
:100850000EB0120442EA0020084310BD1CB5044645
:100860000020009041F020018DF800108DF801006B
:100870008DF8020001908DF80300E1688847A368B5
:10088000032201A968469847616864208847E168A7
:10089000012088479DF806001CBD1CB504460020B9
:1008A000009006218DF800108DF8010001908DF860
:1008B0000200E1688847A368032201A968469847B7
:1008C000616864208847E168012088471CBD1CB529
:1008D00004460020009008218DF800108DF80100DA
:1008E00001908DF80200E1688847A368032201A9FE
:1008F00068469847616864208847E1680120884716
:100900001CBDFEE77047012000F014B8012808D193
:1009100004490877081F01684A1C026002A0FFF71B
:10092000ABBD7047240000242050413020256420B6
:100930000A0000004FF0B04110B5D1F88820024203
:1009400003D0C1F88800FFF7E1FF10BD2DE9FC4F8F
:1009500001257E4C00234FF0030A4FF0B04E4FF0BC
:100960000F0BEBE005FA03F637403A0077D04F68FB
:10097000012F05D0022F03D0112F01D0122F1AD131
:1009800087684FEA4308D1F80CC00AFA08F927EA49
:1009900009070CFA08FC4CEA070CC0F808C04768C5
:1009A00091F804C0B743CCF3001C0CFA03FC4CEAEA
:1009B000070CC0F804C0C6684FEA430CD1F80880A1
:1009C000E1460AFA0CF7BE43019708FA09F848EA2B
:1009D0000608C0F80C804E68022E01D0122E12D1EB
:1009E000DE084FEA437C00EB860600960F69366A04
:1009F0004FEADC6C0BFA0CF807FA0CF726EA08064B
:100A00003743009E37620E790768DDF804C006F0B0
:100A1000030606FA09F627EA0C073E4306604E680D
:100A2000F6001CD54A4E376847F002073760366833
:100A30009F0706F00206009623F0030606F1B04673
:100A4000B1463F0FD6F80864DFF808810BFA07FCBF
:100A5000404526EA0C0603D14FF0000C41E06CE063
:100A6000DFF8F4C0604502D14FF0010C39E0DFF847
:100A7000ECC0604502D14FF0020C32E0DFF8E0C07C
:100A8000604502D14FF0030C2BE0DFF8D8C0604581
:100A900002D14FF0040C24E0DFF8CCC0604502D155
:100AA0004FF0050C1DE0DFF8C4C0604502D14FF0E7
:100AB000060C16E0DFF8B8C0604502D14FF0070C15
:100AC0000FE0DFF8B0C0604502D14FF0080C08E03D
:100AD000DFF8A4C0604502D14FF0090C01E04FF0EF
:100AE0000A0C0CFA07FC4CEA060CC9F808C4266884
:100AF0004F6826EA0206FF0300D5164326606668A3
:100B00004F6826EA0206BF0300D516436660D1F897
:100B100004C07646DEF800705FEACC2C27EA0207B4
:100B200000D517433760D1F804C077685FEA8C2C92
:100B300027EA020700D5174377605B1C0A6817464F
:100B4000DA407FF40FAFBDE8FC8F00008000005852
:100B5000F4440258000002580004025800080258E9
:100B6000000C0258001002580014025800180258D5
:100B7000001C025800200258002402580AB181616A
:100B800070470904FBE7000001480068000C70474B
:100B90000010005C014880687047000000000024DD
:100BA0000248816802781144816070470000002487
:100BB000032010B500F086F800F0E8FF0F4A104956
:100BC00014681368C4F3032203F00F038A5CC95C42
:100BD00002F01F0201F01F01D0400A4A20FA01F181
:100BE000116009490860002000F010F808B10120E8
:100BF00010BD00F02BF8002010BD00001844025872
:100C00001A380008100000240C00002470B50D4DA7
:100C100004462878A0B14FF47A71B1FBF0F00A498C
:100C20000968B1FBF0F001F079FD48B9102C07D24A
:100C300000222146501E00F025F800206C6070BD97
:100C4000012070BD000000240C000024054808B5F8
:100C5000016841F002010160006800F002000090AC
:100C600008BD0000F4440258002809DB410900F0E7
:100C70001F028900012001F1E0219040C1F800012C
:100C8000704700000E4BF0B41B680D46C3F30223FF
:100C9000C3F10706042E00D90426191D072901D225
:100CA000002300E0DB1E012404FA06F19C40491EEB
:100CB0002940641E994014402143F0BC02F0B3BCAB
:100CC0000CED00E0064900F0070210B54FF6FF04F6
:100CD0000868044B204040EA02201843086010BD19
:100CE0000CED00E00000FA05134970B50A68D24324
:100CF000520705D5096801F00701814213D118E0B8
:100D00000A6822F0070202430A60FFF743FF0A4D18
:100D10004FF47A760446083D07E000BFFFF73AFF3C
:100D2000001BB04201D9012070BD2868C043800477
:100D3000F4D4002070BD00000C48025810B500F03B
:100D4000DFFE05490968054AC1F30211515C01F053
:100D50001F01C84010BD0000204402581A38000886
:100D6000494930B5484C0B1D0A68143409681D68A0
:100D7000246802F00303C5F30012C1F30531C4F384
:100D8000CC04002914FB02F200EE102AF8EE400A0F
:100D900075D03F4A9FED3D1AB7EE000A6BB1DFED0B
:100DA0003D1A012B01D0022B64D002EE101A1168FB
:100DB000F8EE422A81EEA22A21E0334C283C236837
:100DC0009B0612D5344B246801EE901A1168C4F3C7
:100DD000C104F8EE612AE34001EE903AC1F3080144
:100DE000F8EE611A81EEA22A0BE001EE901ADFED17
:100DF0002B2A00BFF8EE611A116882EEA12AC1F316
:100E0000080101EE901A1168F8EE611A40EE811A9D
:100E100071EE800A62EE200AC1F3462101EE101A3B
:100E2000B8EE411A31EE001AC0EE811ABCEEE11A9A
:100E300080ED001A1168C1F3064101EE101AB8EEF8
:100E4000411A31EE001AC0EE811ABCEEE11A80EDB3
:100E5000011A1168C1F3066101EE101AB8EE411AC9
:100E600031EE000A80EE801ABCEEC10A80ED020A63
:100E700030BD04E001EE901ADFED092ABAE7002147
:100E8000016041608160F3E72844025800000039A6
:100E9000384402580024744A0090D0030024744C53
:100EA00020BCBE4B494930B5484C0B1D0A681C3468
:100EB00009681D68246802F00303C5F30022C1F32A
:100EC0000551C4F3CC04002914FB02F200EE102AF1
:100ED000F8EE400A75D03F4A9FED3D1AB7EE000A82
:100EE0006BB1DFED3D1A012B01D0022B64D002EE75
:100EF000101A1168F8EE422A81EEA22A21E0334C42
:100F0000283C23689B0612D5344B246801EE901AC6
:100F10001168C4F3C104F8EE612AE34001EE903A8F
:100F2000C1F30801F8EE611A81EEA22A0BE001EE8E
:100F3000901ADFED2B2A00BFF8EE611A116882EEDD
:100F4000A12AC1F3080101EE901A1168F8EE611AA6
:100F500040EE811A71EE800A62EE200AC1F346214A
:100F600001EE101AB8EE411A31EE001AC0EE811AE5
:100F7000BCEEE11A80ED001A1168C1F3064101EEE2
:100F8000101AB8EE411A31EE001AC0EE811ABCEE0A
:100F9000E11A80ED011A1168C1F3066101EE101A21
:100FA000B8EE411A31EE000A80EE801ABCEEC10A9A
:100FB00080ED020A30BD04E001EE901ADFED092A4F
:100FC000BAE70021016041608160F3E728440258DC
:100FD00000000039404402580024744A0090D003B5
:100FE0000024744C20BCBE4B2DE9FC5F044650F835
:100FF000241B002500902E460801FE4FDFF8F883E1
:101000001DD5606E50B1B0F5801F0CD0B0F5001F3B
:101010000ED0B0F5401F1DD001250FE0386840F418
:101020000030386016E00221201D01F095FD03E03C
:101030000098022101F020FE05000BD02E462088EA
:10104000C00523D5606D05281ED2DFE800F00C1125
:10105000161B1B00626ED8F8001021F440111143DA
:10106000C8F80010EBE7386840F40030386009E059
:101070000021201D01F070FD03E00098002101F027
:10108000FBFD05466DB100E001252E462088800558
:1010900028D5A06D80281ED00CDC90B140280ED140
:1010A00014E0626DD8F8001021F007011143C8F870
:1010B0000010EBE7C02813D0B0F5807F10D00125D9
:1010C0000FE0386840F40030386009E00021201D4E
:1010D00001F042FD03E00098002101F0CDFD05463E
:1010E00095B12E462088DFF81093400509F10809D4
:1010F0002CD5D4F8A400B0F5800F20D00DDCA0B121
:10110000B0F5001F0FD115E0A26DD8F8001021F442
:10111000E0711143C8F80010E4E7B0F5C00F13D038
:10112000B0F5000F10D001250FE0386840F4003012
:10113000386009E00021201D01F00EFD03E0009859
:10114000002101F099FD054675B12E462088000565
:101150002DD5D4F8A800B0F1007F21D00EDCA8B1C5
:10116000B0F1807F10D116E0D4F8A420D9F8001097
:1011700021F460011143C9F80010E7E7B0F1407FA6
:1011800013D0B0F1806F10D001250FE0386840F423
:101190000030386009E00021201D01F0DDFC03E093
:1011A0000098002101F068FD05466DB12E462068CB
:1011B00080011FD5A06CD8B110280FD0202812D0E4
:1011C000302815D0012514E0D4F8A820D9F8001053
:1011D00021F0E0611143C9F80010E8E7386840F4F5
:1011E0000030386004E00221201D01F0B5FC054606
:1011F0006DB12E462088C0042BD5E06DB0F5005FA0
:1012000020D00DDCA0B1B0F5805F0FD115E07A4899
:10121000A26C001F016821F0300111430160E9E771
:10122000B0F5405F13D0B0F5804F10D001250FE02E
:10123000386840F40030386009E00021201D01F0DA
:101240008BFC03E00098002101F016FD054685B1F6
:101250002E462088800429D5206EB0F5403F23D04B
:1012600010DC08B3B0F5803F14D0B0F5003F0FD1CB
:1012700015E0E26DD8F8001021F4E0411143C8F800
:101280000010E6E7B0F5802F0ED0B0F5A02F0BD000
:1012900001250AE00121201D01F05EFC03E0009819
:1012A000012101F0E9FC05468DB12E46208840045D
:1012B0002AD5D4F8AC00B0F1405F23D010DC08B3DD
:1012C000B0F1805F14D0B0F1005F0FD115E0226E55
:1012D000D8F8001021F4E0211143C8F80010E5E728
:1012E000B0F1804F0ED0B0F1A04F0BD001250AE035
:1012F0000121201D01F030FC03E00098012101F0E4
:10130000BBFC05466DB12E46208800041FD5E06E5B
:10131000D8B1B0F1805F0ED0B0F1005F10D00125E0
:1013200014E0D4F8AC20D9F8001021F0E0411143CA
:10133000C9F80010E8E7386840F40030386004E08D
:101340000121201D01F008FC05466DB12E462068E4
:10135000C0011ED5606CD0B101280ED0022811D07A
:10136000032814D0012513E0E26ED8F8001021F014
:1013700040511143C8F80010E9E7386840F40030E4
:10138000386004E00221201D01F0E6FB054685B12E
:101390002E462068DFF85CB04002ABF11C0B57D53D
:1013A0001648016841F480710160FFF7F3FB824643
:1013B0000EE01148626C001F016821F00301114327
:1013C0000160E6E7FFF7E6FBA0EB0A0064283DD8E2
:1013D0000A480068C005F5D57DBBDFF81CA0B4F84D
:1013E000B0100AF1200ADAF8000001F4407100F4AC
:1013F000407005E02C4402585044025800480258FE
:10140000884211D0DAF80010DAF8002021F4407197
:1014100042F48032CAF80020DAF8002022F4803248
:10142000CAF80020CAF80010D4F8B000B0F5807FE8
:1014300021D1FFF7AFFB019019E008E0FFF7AAFB0D
:101440000199411A41F28830814210D903252E4674
:101450002078DFF830A4C0073DD0A06F182838D01E
:1014600026DC80B3082829D0102825D12CE0DAF812
:1014700000008007E2D5D4F8B010C1F301200328A2
:1014800058460DD0016821F47C510160B4F8B020B9
:10149000DAF80010C2F30B021143CAF80010D7E7C4
:1014A000F94A036802EA111223F47C511143ECE774
:1014B00020280ED028280CD001250BE00121201D6A
:1014C00001F04AFB04E004E00098012101F0D4FBA4
:1014D00005465DB12E46207880071ED5606F062830
:1014E00019D2DFE800F0160C11161616A26FDAF802
:1014F000001021F038011143CAF80010EBE7012178
:10150000201D01F029FB03E00098012101F0B4FB4C
:10151000054675B100E001252E46207840071FD50D
:10152000D4F89000062819D2DFE800F0160C111646
:101530001616626FDAF8001021F007011143CAF89D
:101540000010EAE70121201D01F006FB03E00098EE
:10155000012101F091FB05469DB100E001252E46D9
:10156000207880062BD5D4F88C00B0F1405F24D0D1
:1015700011DC10B3B0F1805F15D0B0F1005F10D175
:1015800016E0D4F89020D9F8001021F0070111439B
:10159000C9F80010E4E7B0F1804F0ED0B0F1A04FD1
:1015A0000BD001250AE00021201D01F0D5FA03E04F
:1015B0000098022101F060FB05468DB12E4620788F
:1015C00040062BD5D4F89800B0F5406F24D011DC3C
:1015D00010B3B0F5806F15D0B0F5006F10D116E0E4
:1015E000D4F88C20DAF8001021F0E0411143CAF859
:1015F0000010E4E7B0F5805F0ED0B0F5A05F0BD02F
:1016000001250AE00021201D01F0A6FA03E0009860
:10161000022101F031FB05468DB12E4620780006EF
:101620002BD5D4F89C00B0F5C04F24D011DC10B3FA
:10163000B0F5005F15D0B0F5804F10D116E0D4F8AA
:101640009820D9F8001021F4E0511143C9F8001096
:10165000E4E7B0F5004F0ED0B0F5204F0BD00125D8
:101660000AE00021201D01F077FA03E00098022132
:1016700001F002FB05464DB12E46207800071ED52D
:10168000D4F88000B0F5805F0AD00FE0D4F89C2039
:10169000D9F8001021F460411143C9F80010ECE7BB
:1016A0000098022101F0E8FA00B10126D4F8802068
:1016B000DAF8001021F440511143CAF800102078E4
:1016C000C00613D5D4F89400B0F5807F05D10098FA
:1016D000022101F0D1FA00B10126D4F89420D9F802
:1016E000001021F440711143C9F800102068000374
:1016F00016D5D4F8A00038B1B0F5803F09D0B0F5C8
:10170000003F0BD001250AE00021201D01F024FA42
:1017100003E00098022101F0AFFA054685B12E469C
:101720002068400322D5D4F88400B0F5801F11D082
:10173000B0F5001F13D0B0F5401F15D0012514E0FF
:10174000D4F8A020D9F8001021F440311143C9F891
:101750000010E5E7386840F40030386004E0009895
:10176000012101F089FA054655B12E462068C003D3
:101770001CD5E06C70B1B0F5803F10D0012514E0AD
:10178000D4F88420DAF8001021F440111143CAF88B
:101790000010EBE7386840F40030386004E00221C4
:1017A000201D01F0D9F90546CDB12E4620688000F4
:1017B00005D50098022101F05FFA00B101262068EA
:1017C00080031BD5E06FB8B1B0F5807F10D0B0F5C5
:1017D000007F11D0B0F5407F0ED001250DE02948E3
:1017E000E26C0838016821F4803111430160DDE7C3
:1017F000386840F400303860F5B32E462068C002E7
:1018000007D5226FD8F8001021F000411143C8F825
:1018100000102068C00008D5D4F8B420DBF8001010
:1018200021F480411143CBF800102068800207D5D5
:10183000A26ED8F8001021F080711143C8F8001092
:10184000206840000CD5DBF8001021F40041CBF8F3
:101850000010DBF80010D4F8B8201143CBF80010CA
:101860002068002807DA0748226D0838016821F04F
:1018700040511143016000E008E086B10120BDE85D
:10188000FC9F000054440258CFFFFF00E26FDAF8DB
:10189000001021F440711143CAF80010AEE7002097
:1018A000EDE700002DE9F05F04000F467ED0DFF881
:1018B0003882D8F8000000F00F00B8420CD2D8F8F7
:1018C000001021F00F013943C8F80010D8F80000CB
:1018D00000F00F00B84269D12078844D40070AD546
:1018E0002069296801F07001884204D9296821F033
:1018F00070010143296020787C4E361D00070AD50F
:101900006069316801F07001884204D9316821F0C2
:101910007001014331602078C0060AD5A0693168A2
:1019200001F4E061884204D9316821F4E0610143A7
:1019300031602078DFF8B4B180060BF1080B0CD5CC
:10194000E1695846DBF8002002F07002914204D9A8
:10195000026822F070020A430260207880070AD5EC
:10196000E068296801F00F01884204D9296821F054
:101970000F01014329602078C0073ED05B49A2686F
:101980002868183920F470601043286060680228C5
:1019900018D0032819D00968012819D0490700294F
:1019A0004ADADFF848A1AAF1080A00E044E0DAF8D0
:1019B000002022F007020243CAF80020FFF7EAF8ED
:1019C000814612E009688903E9E709688901E6E7C9
:1019D000C905E4E7FFF7DEF8A0EB090141F2883022
:1019E000814202D90320BDE8F09F6168DAF8000067
:1019F00000F03800B0EBC10FECD1207880070AD599
:101A0000E068296801F00F01884204D2296821F0BA
:101A10000F0101432960D8F80010404601F00F0182
:101A2000B9420BD9016821F00F0139430160006808
:101A300000F00F00B84201D00120D4E72078400721
:101A40000AD52069296801F07001884204D229680A
:101A500021F0700101432960207800070AD56069F0
:101A6000316801F07001884204D2316821F07001C0
:101A7000014331602078C0060AD5A069316801F4BD
:101A8000E061884204D2316821F4E06101433160B1
:101A9000207880060CD5E1695846DBF8002002F07A
:101AA0007002914204D2026822F070020A4302607E
:101AB00000F06CF80E492A682B68C2F3032203F089
:101AC0000F038A5CC95C02F01F0201F01F01D040C5
:101AD000084A20FA01F111600749086007480068C8
:101AE000BDE8F05FFFF792B800200052184402589A
:101AF0001A380008100000240C0000240400002400
:101B000030B500F043F80B4A0B490C4B15681468CC
:101B1000C5F3032204F00F048A5C095D02F01F0282
:101B200001F01F01D040064A20FA01F1196010604F
:101B3000084630BD184402581A3800081000002426
:101B40000C00002400B5FFF7DBFF05490968054AD2
:101B5000C1F30211515C01F01F01C84000BD00003B
:101B60001C4402581A38000800B5FFF7C9FF0549A0
:101B70000968054AC1F30221515C01F01F01C84008
:101B800000BD00001C4402581A380008454970B5D1
:101B900045480968434B103B11F0380208D0011149
:101BA000082A03D0102A0BD0182A0BD0084670BD83
:101BB00019688906FBD51968C1F3C101C84070BD19
:101BC0003A4870BD3749374D18310C1D24350A6825
:101BD000096826682D6802F0030406F00102C1F3CB
:101BE0000511C5F3CC0515FB02F200EE102AB8EE84
:101BF000400AE9B32F4ADFED2E0AB7EE001A6CB1A6
:101C0000DFED2D1A012C01D0022C43D002EE101A68
:101C10001068F8EE422A81EEA22A1EE01C68A40693
:101C200011D51B6801EE901A1168C3F3C103F8EED9
:101C3000612AD84001EE900AC1F30800F8EE611A5B
:101C400081EEA22A0BE001EE901ADFED1C2A00BF04
:101C5000F8EE611A106882EEA12AC0F3080001EEC6
:101C6000900AF8EE611A40EE201A31EE810A00E087
:101C700015E022EE000A1068C0F34620401C00EE7A
:101C8000900AF8EE600A80EE201ABCEEC10A10EE4F
:101C9000100A70BD01EE901ADFED092AD8E7002086
:101CA00070BD0000104402580090D00340787D01C0
:101CB00000000039304402580024744A0024744C57
:101CC00020BCBE4B2DE9F05F04007CD0FF4F207894
:101CD000FE4D1837DFF8F493103DC00748D0D9F80F
:101CE0000000396800F03800102815D0182803D1FA
:101CF00001F0030002280FD06068B0F5803F12D0D9
:101D000010B1B0F5A02F18D0286820F480302860DA
:101D1000286820F4802009E02868800328D56068BE
:101D20000028D2D024E0286840F480302860606821
:101D300088B1FEF72FFF064609E0286840F48020AE
:101D40002860F0E7FEF726FF801B64287ED828680D
:101D50008003F7D50CE0FEF71DFF064605E000BF47
:101D6000FEF718FF801B6428F0D828688003F7D49A
:101D7000207841F20308D54E0C3E800753D5D9F8A0
:101D80000000396810F038000ED0182801D18807FB
:101D90000AD0E068A8B3296821F01901014329603D
:101DA000FEF7F8FE82461BE02868400702D5E0688F
:101DB00000288AD0FEF7E8FE40451BD8206940285D
:101DC00012D0316800E0CCE021F47C3141EA0030EF
:101DD000306028E0FEF7DEFEA0EB0A000228B5D84E
:101DE00028684007F6D5E5E7306820F47C3040F4F9
:101DF0000030EDE7207C316821F0FE4141EA0060CF
:101E0000E6E7FFE7286820F001002860FEF7C2FE41
:101E1000824605E0FEF7BEFEA0EB0A00022895D838
:101E200028684007F6D42078C0065FD5D9F80000AE
:101E3000DFF898B2396800F03800ABF1040B0828DD
:101E400012D0182805D101F0030000E0EAE00128D3
:101E50000AD0E0690028286838D040F08000286067
:101E6000FEF798FE824623E02868C00523D5E06986
:101E7000802876D11FE0206A202821D0316821F007
:101E8000F84141EA8060306030E000BF94F82010F3
:101E9000DBF8002022F07C5242EA0161CBF800100E
:101EA00024E000BFFEF776FEA0EB0A00022896D8D9
:101EB0002868C005F6D5FEF767FE4045E6D8DAE7A4
:101EC000306820F0F84040F08040DCE720F08000EF
:101ED0002860FEF75FFE064605E000BFFEF75AFEEB
:101EE000801B02289BD82868C005F7D420780007FB
:101EF00029D576486169643000298046016811D08F
:101F000041F001010160FEF745FE064605E000BF15
:101F1000FEF740FE801B0228C9D8D8F800008007D1
:101F2000F6D510E021F001010160FEF733FE064610
:101F300005E000BFFEF72EFE801B022872D8D8F8FD
:101F400000008007F6D42078800623D5A0690028F9
:101F5000286810D040F480502860FEF71BFE06462B
:101F600005E02CE1FEF716FE801B02285AD82868EF
:101F70008004F7D50EE020F480502860FEF70AFEBA
:101F8000064604E0FEF706FE801B02284AD82868B1
:101F90008004F7D4207840074FD5DFF83481D8F893
:101FA000001041F48071C8F80010FEF7F3FD0646FA
:101FB00005E000BFFEF7EEFD801B642832D8D8F89C
:101FC0000000C005F6D5414EA068603601280AD051
:101FD00008B1052813D0306820F001003060306867
:101FE00020F0040002E0306840F001003060A0689A
:101FF00041F2883A90B1FEF7CDFD80460AE03068A4
:1020000040F004003060EEE7FEF7C4FDA0EB0801ED
:10201000514507D830688007F6D50EE0FEF7BAFDC7
:10202000804607E084E000BFFEF7B4FDA0EB0801A6
:1020300051457DD830688007F6D4606AF0B3DFF888
:102040008C80D9F8001008F12008C1F3C2010329DF
:102050006FD00228286820F08070286003D0FEF737
:1020600099FD044680E0FEF795FD064605E000BFB9
:10207000FEF790FD801B022873D828688001F7D4F2
:10208000E26A40F2F331386854F8283F884340EA66
:10209000021018433860217B4FF4FE0C22894FF068
:1020A000FE47208A4902267D521E401EA1F500717E
:1020B00089B20CEA0040C2F3080200E081E011435B
:1020C000761E0143014807EA066203E01044025805
:1020D000004802581C3011433B4AC8F80010016800
:1020E00021F00101016011684FF6F876236AB143CF
:1020F00041EAC30111600168A26921F00C0111439A
:1021000001600168E26921F0020111430160016888
:1021100041F480310160016841F4003101600168DF
:1021200041F480210160016841F00101016001E09A
:1021300017E01DE0286840F080702860FEF72AFD57
:10214000044604E0FEF726FD001B022809D8286893
:102150008001F7D535E000BFFEF71CFD001B02280B
:1021600002D90320BDE8F09F28688001F4D428E05C
:1021700039680128D8F8000021D0A26A01F00303D1
:1021800093421CD1E26AC1F305118A4217D1216B37
:10219000C0F30802491E8A4211D1616BC0F3462286
:1021A000491E91420BD1A16BC0F30642491E9142D8
:1021B00005D1E16BC0F30660491E814201D00120C8
:1021C000D0E70020CEE70000344402582DE9F04764
:1021D000040029D04A4A4FF000092068494B4A4D73
:1021E0009042C4F8289006D0984204D0A84202D069
:1021F000E1680F2918D8E1684FF0010AE76B083150
:10220000C9080AEB57167143904205D0984203D093
:10221000A84201D0082907D8904203D0984201D0A3
:10222000A84204D1102902D90120BDE8F08794F812
:10223000810020B9204684F8809000F067F80220E1
:1022400084F881002068016821F001010160A06923
:10225000B0F1806F0AD16068B0F5800F06D1A06B35
:1022600020B92068016841F480510160A56AE069E5
:102270002368E16B2843E268084310439860D4E97F
:102280000D02D4E905C1636A25691843D4F820809A
:102290000A43266810432843A56DD4E90172D4E9A6
:1022A000123140EA0C0040EA08003843084310436A
:1022B00018432843F060606868B92068816821F499
:1022C000C05141F4006181602068816821F4C061DF
:1022D00041F4806181602068016D21F00101016598
:1022E0006068400206D52068626DC16821F0004137
:1022F0001143C160C4F8849084F881A0002094E761
:102300000030014000380040003C0040F0B587B08C
:10231000044614216846FEF757F92C4A4FF002058F
:10232000216800242A4891422ED1294908310A689F
:1023300042F480420A60096801F480410591016815
:1023400041F004010160016801F004010591016898
:1023500041F002010160006802AA0326694600F00C
:10236000020005900620CDE900050527194882E8FE
:10237000D000FEF7EBFA6802694602AACDE9000533
:10238000154882E8D0001DE0144A91421CD1104942
:1023900014310A6842F020020A60096801F0200145
:1023A0000591016841F0010101600068082100F019
:1023B00001000590E0200090CDE90154CDE90341F2
:1023C00007486946FEF7C2FA07B0F0BD0038004082
:1023D000E044025800080258000402580014005853
:1023E000000002582DE9FF4F83B090F8801004469A
:1023F000006801294FF00001109F1D46019100F176
:10240000200100F1300093460291009014D04FF06B
:10241000010A84F880A0FEF7BDFB804694F8810095
:102420006368002101282E464FF480020CD09342AD
:1024300008D1A36833B903E0022007B0BDE8F08FEC
:10244000042801D0022037E0049898B3BBF1000FB4
:1024500031D07DB394F88100042802D0052084F89F
:10246000810089460846C4F88410C4F864B0A4F812
:102470006A50A4F868500499E165A4F86250A4F881
:10248000605020676067206841686FF30F0129433F
:1024900041602068016841F001010160606890427C
:1024A00004D12068016841F400710160E0680F28E0
:1024B00035D846E0FFE7012084F88010BDE72068AA
:1024C000416989070DD565B1E16D09680162E06D6B
:1024D000001DE065B4F86200401EA4F86200B4F884
:1024E000625048F208022068416911420DD066B17D
:1024F000006B616E0860606E001D6066B4F86A0073
:10250000401EA4F86A00B4F86A60FEF743FBA0EB33
:102510000800B84202D3781C01D004E01FB155EA8C
:102520000600CCD1D2E0204600F036FCD4F884205E
:1025300084F8809042F48071C4F8841084F881A0FB
:10254000DCE007284DD8BEE02068416989071CD52A
:10255000DDB1012D0BD9E16B49B1E16D0968016273
:10256000E06D001DE065B4F86200801E09E0E06DDA
:10257000018802980180E06D801CE065B4F862007B
:10258000401EA4F86200B4F862502068416911F45A
:10259000604F1BD0D6B14169090409D5006B616E4B
:1025A0000860606E001D6066B4F86A00801E09E075
:1025B00000980088616E0880606E801C6066B4F8C8
:1025C0006A00401EA4F86A00B4F86A60FEF7E2FAF6
:1025D000A0EB0800B84202D3781C02D0A3E7002F7A
:1025E000A1D055EA0600AFD170E0206841698907A3
:1025F0002CD55DB3032D0CD9E16B40290BD9E16DCE
:1026000009680162E06D001DE065B4F86200001F1A
:1026100018E0012D0CD9E16B51B1E06D01880298F1
:102620000180E06D801CE065B4F86200801E09E066
:10263000E16D097880F82010E06D401CE065B4F889
:102640006200401EA4F86200B4F86250206841693C
:1026500011F4604F2CD05EB34169090409D5006BB9
:10266000616E0860606E001D6066B4F86A00001F4D
:102670001AE0416901F4C041B1F5005F0AD9009840
:102680000088616E0880606E801C6066B4F86A0025
:10269000801E09E090F83000616E0870606E401C8A
:1026A0006066B4F86A00401EA4F86A00B4F86A6074
:1026B000FEF770FAA0EB0800B84202D3781C02D0F3
:1026C00031E7002F8AD055EA06008ED1002243461A
:1026D00008212046009700F0BDFB28B1D4F8840003
:1026E00040F02000C4F88400204600F055FB84F838
:1026F00081A0D4F8841084F8809009B101209CE670
:1027000001989AE604284FF0E020016903D021F0F7
:1027100004010161704741F00401FAE7401EB0F185
:10272000807F10B501D3012010BD4FF0E02460611F
:102730000F21601700F077FF0020A06107212161C1
:1027400010BD30B590F87C10012918D0012280F816
:102750007C202421C0F880100022202450F8601B27
:102760000B680D6823F0005325F001050D604260F1
:1027700050F8601C0B6004620277104630BD0220E6
:1027800030BD70B5044690F87C0001281DD00122B0
:1027900084F87C202420C4F8800020680568026842
:1027A00022F0010202602068826822F060620A431F
:1027B0008260204600F046FC22682021002015603F
:1027C000C4F8801084F87C0070BD022070BD70B524
:1027D000044690F87C0001281DD0012284F87C205A
:1027E0002420C4F8800020680568026822F00102F5
:1027F00002602068826822F060420A4382602046BC
:1028000000F020FC2268202100201560C4F8801010
:1028100084F87C0070BD022070BD10B5040003D0A8
:10282000D4F8800010B107E0012010BD002084F82A
:102830007C00204600F026F82420C4F880002068A0
:10284000016821F001010160204600F0C1FC01286F
:10285000EBD0A06A10B1204600F026FC2068416849
:1028600021F4904141602068816821F02A01816053
:102870002068016841F0010101602046BDE8104078
:1028800000F076BC10B586B0044614216846FDF70A
:102890009BFE13492068884220D11248016841F00C
:1028A00010010160006800F0100005900D4810381C
:1028B000016841F00201016000680423022200F077
:1028C0000200059000204FF4404100916946CDE997
:1028D0000120CDE903030448FEF738F806B010BD27
:1028E00000100140F044025800040258FEE70000C6
:1028F0002DE9F04786B014216846FDF765FE47488C
:10290000016841F010010160016801F010010591BA
:10291000016841F004010160016801F004010591C2
:10292000016841F080010160016801F080010591BA
:10293000016841F001010160016801F001010591A8
:10294000016841F00201016000680022344F082153
:1029500000F0020005903846FEF710F9DFF8C4A039
:10296000002201215046FEF709F9012250460821B4
:10297000FEF704F9DFF8B090002216214846FEF772
:10298000FDF801AA4FF008080124CDF800800025C9
:1029900069460326384682E87000FDF7D7FF022714
:1029A000694660038DE8A1005046FDF7CFFF03960E
:1029B000694600945046CDE90147FDF7C7FFCDE9D0
:1029C0000084CDE9024669465046FDF7BFFF17482F
:1029D00069460294CDE900404846FDF7B7FF16204E
:1029E00069468DE8310048460395FDF7AFFF0621A3
:1029F00020030090CDE90175CDE9035169465046A9
:102A0000FDF7A4FF002202210620FEF73BF9062075
:102A1000FEF72AF906B0BDE8F0870000E04402584E
:102A2000001002580008025800000258000021114E
:102A30002DE9F041164C0020164D07274FF4800673
:102A4000E760B1002560C4E9016004F110068A0066
:102A50004B0186E80F0020628D016062A062E06297
:102A6000C4E90D50E06320646064A064E064206504
:102A70006065A0652046FFF7A9FB08B172B6FEE7C6
:102A80002068016841F001010160BDE8F0810000AB
:102A9000B00000240038004070B5134803224FF402
:102AA0008004104D00212301C0E9021201611A01C6
:102AB000C0E90513C161016241628162C162C0E97E
:102AC0000D21C163016441648164C1640165416594
:102AD0008165C0E90054FFF779FB002801D072B688
:102AE000FEE770BD0014005838010024174800218B
:102AF00010B5154C0C224FF4E1330460C0E90131EC
:102B0000C160C0E904128161C161016241628162F8
:102B1000FFF783FE08B172B6FEE70C480021FFF70D
:102B200056FE08B172B6FEE708480021FFF729FEFD
:102B300008B172B6FEE70548FFF703FE002801D092
:102B400072B6FEE710BD000000100140C001002475
:102B5000FEE7FEE7704700002DE9F047454D0446CB
:102B600089464FF0000A2868C04380070AD0414ECA
:102B7000283E306820F080603060FEF70BF8074692
:102B8000B04608E00120BDE8F08700BFFEF702F87C
:102B9000C01B022867D8D8F800000001F6D42068CE
:102BA00029684FF4FE0721F47C313E0241EA0030EF
:102BB0002860207AA389B4F804C040022D4D2D4925
:102BC0005B1E227CACF1010C1035091DA0F50070D4
:102BD00080B2521ECCF3080C07EA034340EA0C0013
:102BE000184306EA0262104328600868626920F010
:102BF000C000104308600A68A06922F02002024366
:102C00000A60281D0A6822F010020A6002684FF666
:102C1000F873E4699A4342EAC40202600868B9F1B1
:102C2000000F40F010020A6011D00868B9F1010FDE
:102C300011D040F400100860D8F80000444640F07D
:102C40008060C8F80000FDF7A5FF05460DE00868A4
:102C500040F40020EFE740F48010ECE7FDF79AFF26
:102C6000401B022801D903208DE720680001F5D51B
:102C7000504688E7284402582DE9F047454D044660
:102C800089464FF0000A2868C04380070AD0414EA9
:102C9000283E306820F080503060FDF77BFF07460B
:102CA000B04608E00120BDE8F08700BFFDF772FFE5
:102CB000C01B022867D8D8F800008000F6D420880E
:102CC00029684FF4FE0721F07C713E0241EA005072
:102CD0002860207AA389B4F804C040022D4D2D4904
:102CE0005B1E227CACF1010C1835091DA0F50070AB
:102CF00080B2521ECCF3080C07EA034340EA0C00F2
:102D0000184306EA0262104328600868626920F4EA
:102D10004060104308600A68A06922F40072024310
:102D20000A60281D0A6822F480720A6002684FF661
:102D3000F873E4699A4342EAC40202600868B9F190
:102D4000000F40F480720A6011D00868B9F1010FD9
:102D500011D040F080700860D8F80000444640F080
:102D60008050C8F80000FDF715FF05460DE0086823
:102D700040F48000EFE740F40000ECE7FDF70AFFC5
:102D8000401B022801D903208DE720688000F5D57B
:102D9000504688E72844025810B5026840F26F3365
:102DA0005169946944F0080494610268946944F09C
:102DB000100494610268146824F00104146002682D
:102DC00014699C4314610268936823F44043936040
:102DD00090F88120042A0CD08A060AD5D0F88420E5
:102DE00042F08002C0F884200268936943F0200317
:102DF000936190F88120032A0CD04A060AD5D0F8B6
:102E0000842042F00402C0F884200268936943F0F1
:102E1000400393618A050AD5D0F8842042F001026C
:102E2000C0F884200268936943F400739361C90574
:102E30000AD5D0F8841041F00801C0F88410016868
:102E40008A6942F480728A610021A0F86210A0F8B9
:102E50006A1010BD2DE9F041984616460D4607460A
:102E6000069C09E0FDF796FEA0EB0800A04202D305
:102E7000601C01D00BE054B13868406935EA0000AD
:102E800007D00020B042EDD00020BDE8F081032043
:102E9000FBE70120F6E77047FDF782BE70B5CCB0C6
:102EA0004C212FA8FDF790FB202142A8FDF78CFBB9
:102EB000BC216846FDF788FB0220FDF715FF264977
:102EC00026480A6822F001020A60096801680024A5
:102ED00021F4404141F400410160016801F44041A6
:102EE0004A9101688904FCD50DF1E40C05236026A4
:102EF000022038908CE849003C9008253D90C203A0
:102F00003E900121CDE93F5441942FA8CDE92F12E5
:102F1000FEF7D8FE08B172B6FEE742AA3F200321B1
:102F200082E833000121469442A84794489449948A
:102F3000FEF7B8FC08B172B6FEE745F2010017943F
:102F40001E942B9400906846FEF74EF8002801D09E
:102F500072B6FEE74CB070BD2C04005818480258F9
:102F60002E48F0B52E4A016841F4700101601068E6
:102F700000F00F00072804D2106820F00F00C01DD9
:102F8000106028490020274C10340B68264D43F070
:102F900001030B6020600B682B400B60136803F08B
:102FA0000F03072B04D9136823F00F03DB1D1360F5
:102FB0001C4C1E4A18341E4B261D371D2060194C10
:102FC0001C4D28343060261D3860371D23603B1DA2
:102FD00035601C1D3A60251D2E1D1860331D2260B2
:102FE0002860326018600A680E4B134C22F480226D
:102FF00060330A60186020686FF30F00B0F1005F63
:1030000003D20E490120C1F8080143F2D2000C4955
:10301000024B4A03803B08601A60F0BD88ED00E077
:1030200000200052004402587FEDF6EA80020101C0
:10303000000202020000FF010010005C008000514D
:10304000004000523FB514A1D1E9002314A1CDE9FD
:103050000023D1E90021CDE90221416EB9B1016817
:1030600002AC8A688968C2F34262490F1DF80150B8
:10307000615C2D01B5FBF1F1A0F86A101DF802109A
:10308000A25C0901B1FBF2F1A0F868103FBD01217B
:10309000A0F86A10F8E70000010101030701000031
:1030A000080402040801010190F82810C90706D09D
:1030B0000168C36A4A6822F400321A434A6090F8F1
:1030C0002810890706D50168036B4A6822F480320C
:1030D0001A434A6090F82810490706D50168436BE7
:1030E0004A6822F480221A434A6090F8281009079F
:1030F00006D50168836B4A6822F400421A434A608D
:1031000090F82810C90606D50168C36B8A6822F4B6
:1031100080521A438A6090F82810890606D5016803
:10312000036C8A6822F400521A438A6090F82810CF
:10313000490611D50168436C4A6822F480121A438B
:103140004A60416CB1F5801F06D10168836C4A6802
:1031500022F4C0021A434A6090F82810090606D5E6
:103160000168C26C486820F4002010434860704732
:10317000F8B500260446C0F88860FDF70BFD05464B
:1031800020686FF07E470068000708D500222B46B4
:103190004FF400112046009700F0F2F960B9206862
:1031A000006840070AD500222B464FF480012046D4
:1031B000009700F0E5F908B10320F8BD2020C4F81D
:1031C000800084F87C60C4F884000020F8BD000012
:1031D0002DE9F04304468068D94F87B02268D4E9CE
:1031E0000465E369616E304316681D432843D54B7F
:1031F000002501433E400E4316602068E2684168A6
:1032000021F44051114341602268A1699A4201D0E2
:10321000206A01439668DFF830C3CC4FCC4806EAF9
:103220000C060E4396602168666ACA6A22F00F0295
:103230003243CA622268BA420ED1006800F03800F8
:10324000182873D047DCB8B3082879D010286FD17C
:1032500078E028287ED17BE0BE498A4209D1006807
:1032600000F00700062875D2DFE800F0546A6C6EA3
:103270007072B9498A4209D1006800F00700062837
:1032800068D2DFE800F0475D5F616365B3498A4259
:1032900009D1006800F0070006285BD2DFE800F0E3
:1032A0003A5052545658AE498A420BD1006800F049
:1032B000070006284ED200E010E0DFE800F02B41C6
:1032C00043454749A7498A420AD1006800F03800BF
:1032D000182839D0B7DD2028BBD13CE001203AE0E6
:1032E000A1498A4209D1006800F00700062831D2BE
:1032F000DFE800F01026282A2C2E9C498A420BD1A8
:10330000006800F00700062824D2DFE800F0031967
:103310001B1D1F2100201EE09A421BD18C48001D5E
:10332000006800F00700062814D202E00CE007E075
:1033300010E0DFE800F0030507090B0D02200AE0AA
:10334000042008E0082006E0102004E0202002E02D
:10335000402000E080208649DFF818829A42864AA1
:103360004FF400434FEA21174FF000064ED11028CA
:103370001AD006DC022809D004280BD008287DD1F9
:103380000DE020283ED0402878D13DE0FDF7D6FC66
:10339000014610E06846FDF7E3FC01990BE003A845
:1033A000FDF780FD049906E01068800604D51068DA
:1033B000C0F3C100C140C1B3606A676838F810202B
:1033C00007EB4703B1FBF2F0834257D8B0EB073F5E
:1033D00054D8002308461946FCF7D6FF090202021A
:1033E00041EA106170084FEA370010183A467141FF
:1033F0000023FCF7C9FF614AA0F5407191423DD816
:1034000021684CE03946D7E71946D5E7D4F81CC007
:103410004FF6EF799C4552D108281AD006DC60B1EE
:1034200001280DD0042829D10EE039E0102815D04C
:10343000202840D040287CD13FE0FEF783FB01E00C
:10344000FEF792FB014610E06846FDF789FC019902
:103450000BE003A8FDF726FD049906E0106880063E
:1034600004D51068C0F3C100C140C9B1636A606887
:1034700038F81330B1FBF3F1490000E059E001EBFB
:103480005001B1FBF0F080B2A0F11001494550D8D5
:103490004FF6F0732168C0F3420218401043C86031
:1034A0000120A4F86A00A4F868002846E6662667AA
:1034B00007B0BDE8F0833946D8E71946D6E70828B3
:1034C00019D005DC58B101280CD0042831D10DE009
:1034D000102815D020282ED040282AD12DE0FEF724
:1034E00031FB01E0FEF740FB014610E06846FDF7C6
:1034F00037FC01990BE003A8FDF7D4FC049906E022
:103500001068800605D51068C0F3C100C1400029CD
:10351000C6D0636A606838F81330B1FBF3F101EB91
:103520005001B1FBF0F080B2A0F1100149457FF6E7
:1035300067AF0125B4E73946EBE71946E9E7000034
:10354000F369FFCF000C0058FFF4FF110010014099
:10355000544402580044004000480040004C0040E1
:10356000005000400014014000780040007C004002
:103570000090D0030238000800440258FFFC0F00FE
:103580002DE9F0479A4617460E460446089D4FF02F
:1035900000094FF0200839E0681C37D0FDF7FAFA2F
:1035A000A0EB0A00A84222D80DB3206801684907A1
:1035B0002CD5C069C043000528D423684FF40061AE
:1035C000196221680B6823F4D0730B6021688B6843
:1035D00023F001038B60C4F88080C4F88480C4F8B1
:1035E000888000BF032084F87C90BDE8F0872168C4
:1035F0000B6823F4D0730B6021688B6823F0010300
:103600008B60C4F88080C4F88480EBE72068C069D0
:1036100036EA000004D00020B842BDD00020E4E724
:103620000120F9E7FEE7090700284FEA116104DBF2
:1036300000F1E02080F80014704700F00F0000F166
:10364000E02080F8141D70477047000010B5044654
:103650000420FFF757F80148046010BD140000244F
:1036600070B5002405464FF47A7603E0304600F04A
:1036700005F8641CAC42F9D370BD00000B49002270
:1036800070B54FF0E024096865694843A369A169F2
:103690009942FCD002D2A3EB010302E0A5EB0106A4
:1036A00033441A440B468242F1D370BD1400002407
:1036B0000349CA695206FCD5C2B28A62704700004B
:1036C00000100140FDF774FAFFF7E8FBFFF710F96F
:1036D000FFF70CFAFFF7ACF9FFF7DEF900F042F85C
:1036E000FEE7000008B5FF23009313460A46014693
:1036F0000148FEF777FE08BDB000002470B50168F0
:103700004FF496750446284688472169002088476B
:10371000A16900208847216828468847216901203F
:103720008847A1690120884721686420884720468E
:10373000FDF72EF86420FFF793FF2046FDF7ADF864
:103740006169002088472046FDF7C1F86420FFF733
:1037500087FF2046FDF736F861690120BDE870401B
:1037600008470000F020FFF771FF0EA0FCF784FE71
:103770000F48FFF7C3FF0E480021FDF76FF8014621
:103780000CA0FCF779FE0A4C00250D4E207F012885
:10379000FCD10748FDF730F830600A20FFF760FFE2
:1037A0002577F3E773797374656D206F6B00000004
:1037B0002400002464617461203D2025780000000D
:1037C0001C000024082102460148FDF7D7B900007B
:1037D0000008025870470000022102460148FDF728
:1037E000CDB9000000000258012102460148FDF752
:1037F000C5B90000000802584FF04070E1EE100A11
:103800007047010002000400060008000A000C00D6
:1038100010002000400080000001000000000102B4
:10382000030401020304060708093031323334353A
:1038300036373839414243444546403058003031EC
:103840003233343536373839616263646566403007
:10385000780000007438000800000024B000000068
:10386000D402000824390008B00000240008000039
:10387000F00200080100000010000000000000003D
:103880000090D0030090D003000000000000000072
:103890000000000000000000613600087D360008CE
:1038A000E5360008C5370008D9370008E9370008B1
:1038B000D5370008000000000000000000000000F4
:1038C00000000000000000000000000000000000F8
:1038D00000000000000000000000000000000000E8
:1038E00000000000000000000000000000000000D8
:1038F00000000000000000000000000000000000C8
:1039000000000000000000000000000000000000B7
:1039100000000000000000000000000000000000A7
:0439200000000000A3
:040000050800029954
:00000001FF
